{
  "contractName": "PropertyRegistry",
  "abi": [
    {
      "inputs": [
        {
          "name": "_propertyContract",
          "type": "address"
        },
        {
          "name": "_propertyToken",
          "type": "address"
        }
      ],
      "payable": false,
      "stateMutability": "nonpayable",
      "type": "constructor"
    },
    {
      "anonymous": false,
      "inputs": [
        {
          "indexed": false,
          "name": "_tokenId",
          "type": "uint256"
        }
      ],
      "name": "Registered",
      "type": "event"
    },
    {
      "anonymous": false,
      "inputs": [
        {
          "indexed": false,
          "name": "_tokenId",
          "type": "uint256"
        }
      ],
      "name": "Approved",
      "type": "event"
    },
    {
      "anonymous": false,
      "inputs": [
        {
          "indexed": false,
          "name": "_tokenId",
          "type": "uint256"
        }
      ],
      "name": "Requested",
      "type": "event"
    },
    {
      "anonymous": false,
      "inputs": [
        {
          "indexed": false,
          "name": "_tokenId",
          "type": "uint256"
        }
      ],
      "name": "CheckIn",
      "type": "event"
    },
    {
      "anonymous": false,
      "inputs": [
        {
          "indexed": false,
          "name": "_tokenId",
          "type": "uint256"
        }
      ],
      "name": "CheckOut",
      "type": "event"
    },
    {
      "constant": true,
      "inputs": [
        {
          "name": "_tokenId",
          "type": "uint256"
        }
      ],
      "name": "getPropertyDetails",
      "outputs": [
        {
          "name": "",
          "type": "uint256"
        },
        {
          "name": "",
          "type": "string"
        }
      ],
      "payable": false,
      "stateMutability": "view",
      "type": "function"
    },
    {
      "constant": false,
      "inputs": [
        {
          "name": "_tokenId",
          "type": "uint256"
        },
        {
          "name": "_price",
          "type": "uint256"
        },
        {
          "name": "_uri",
          "type": "string"
        }
      ],
      "name": "registerProperty",
      "outputs": [],
      "payable": false,
      "stateMutability": "nonpayable",
      "type": "function"
    },
    {
      "constant": false,
      "inputs": [
        {
          "name": "_tokenId",
          "type": "uint256"
        },
        {
          "name": "_checkIn",
          "type": "uint256"
        },
        {
          "name": "_checkOut",
          "type": "uint256"
        }
      ],
      "name": "requestStay",
      "outputs": [],
      "payable": false,
      "stateMutability": "nonpayable",
      "type": "function"
    },
    {
      "constant": false,
      "inputs": [
        {
          "name": "_tokenId",
          "type": "uint256"
        }
      ],
      "name": "approveRequest",
      "outputs": [],
      "payable": false,
      "stateMutability": "nonpayable",
      "type": "function"
    },
    {
      "constant": false,
      "inputs": [
        {
          "name": "_tokenId",
          "type": "uint256"
        }
      ],
      "name": "checkIn",
      "outputs": [],
      "payable": false,
      "stateMutability": "nonpayable",
      "type": "function"
    },
    {
      "constant": false,
      "inputs": [
        {
          "name": "_tokenId",
          "type": "uint256"
        }
      ],
      "name": "checkOut",
      "outputs": [],
      "payable": false,
      "stateMutability": "nonpayable",
      "type": "function"
    },
    {
      "constant": true,
      "inputs": [
        {
          "name": "_tokenId",
          "type": "uint256"
        }
      ],
      "name": "getPropertyData",
      "outputs": [
        {
          "name": "stays",
          "type": "uint256"
        },
        {
          "name": "price",
          "type": "uint256"
        },
        {
          "name": "uri",
          "type": "string"
        }
      ],
      "payable": false,
      "stateMutability": "view",
      "type": "function"
    },
    {
      "constant": true,
      "inputs": [
        {
          "name": "_tokenId",
          "type": "uint256"
        }
      ],
      "name": "getStayData",
      "outputs": [
        {
          "name": "",
          "type": "address"
        },
        {
          "name": "",
          "type": "address"
        },
        {
          "name": "",
          "type": "address"
        },
        {
          "name": "",
          "type": "uint256"
        },
        {
          "name": "",
          "type": "uint256"
        }
      ],
      "payable": false,
      "stateMutability": "view",
      "type": "function"
    },
    {
      "constant": true,
      "inputs": [
        {
          "name": "_tokenId",
          "type": "uint256"
        }
      ],
      "name": "ownerGetStays",
      "outputs": [
        {
          "name": "",
          "type": "uint256"
        }
      ],
      "payable": false,
      "stateMutability": "view",
      "type": "function"
    }
  ],
  "bytecode": "0x608060405234801561001057600080fd5b50604051604080611a0c833981018060405281019080805190602001909291908051906020019092919050505081600160006101000a81548173ffffffffffffffffffffffffffffffffffffffff021916908373ffffffffffffffffffffffffffffffffffffffff160217905550806000806101000a81548173ffffffffffffffffffffffffffffffffffffffff021916908373ffffffffffffffffffffffffffffffffffffffff160217905550505061193d806100cf6000396000f300608060405260043610610099576000357c0100000000000000000000000000000000000000000000000000000000900463ffffffff1680630a65be671461009e578063126dbe43146100df5780631bd2eeee1461018c57806392272693146101b9578063bb632ab8146101fa578063ccfc7f72146102ae578063d7d1bbdb1461032b578063e95a644f14610358578063f4daaa3514610385575b600080fd5b3480156100aa57600080fd5b506100dd600480360381019080803590602001909291908035906020019092919080359060200190929190505050610466565b005b3480156100eb57600080fd5b5061010a60048036038101908080359060200190929190505050610609565b6040518083815260200180602001828103825283818151815260200191508051906020019080838360005b83811015610150578082015181840152602081019050610135565b50505050905090810190601f16801561017d5780820380516001836020036101000a031916815260200191505b50935050505060405180910390f35b34801561019857600080fd5b506101b7600480360381019080803590602001909291905050506106df565b005b3480156101c557600080fd5b506101e460048036038101908080359060200190929190505050610ae8565b6040518082815260200191505060405180910390f35b34801561020657600080fd5b5061022560048036038101908080359060200190929190505050610c9e565b6040518084815260200183815260200180602001828103825283818151815260200191508051906020019080838360005b83811015610271578082015181840152602081019050610256565b50505050905090810190601f16801561029e5780820380516001836020036101000a031916815260200191505b5094505050505060405180910390f35b3480156102ba57600080fd5b506103296004803603810190808035906020019092919080359060200190929190803590602001908201803590602001908080601f0160208091040260200160405190810160405280939291908181526020018383808284378201915050505050509192919290505050610d90565b005b34801561033757600080fd5b5061035660048036038101908080359060200190929190505050611115565b005b34801561036457600080fd5b5061038360048036038101908080359060200190929190505050611370565b005b34801561039157600080fd5b506103b06004803603810190808035906020019092919050505061177e565b604051808673ffffffffffffffffffffffffffffffffffffffff1673ffffffffffffffffffffffffffffffffffffffff1681526020018573ffffffffffffffffffffffffffffffffffffffff1673ffffffffffffffffffffffffffffffffffffffff1681526020018473ffffffffffffffffffffffffffffffffffffffff1673ffffffffffffffffffffffffffffffffffffffff1681526020018381526020018281526020019550505050505060405180910390f35b82600073ffffffffffffffffffffffffffffffffffffffff166002600083815260200190815260200160002060020160009054906101000a900473ffffffffffffffffffffffffffffffffffffffff1673ffffffffffffffffffffffffffffffffffffffff16141515610541576040517f08c379a00000000000000000000000000000000000000000000000000000000081526004018080602001828103825260178152602001807f526571756573746564206d75737420626520656d70747900000000000000000081525060200191505060405180910390fd5b336002600086815260200190815260200160002060020160006101000a81548173ffffffffffffffffffffffffffffffffffffffff021916908373ffffffffffffffffffffffffffffffffffffffff1602179055508260026000868152602001908152602001600020600501819055508160026000868152602001908152602001600020600601819055507f54593fbf3d0e13af724316e44a7387ee756ab753993496c7009658e83217002c846040518082815260200191505060405180910390a150505050565b60006060600260008481526020019081526020016000206001015460026000858152602001908152602001600020600701808054600181600116156101000203166002900480601f0160208091040260200160405190810160405280929190818152602001828054600181600116156101000203166002900480156106cf5780601f106106a4576101008083540402835291602001916106cf565b820191906000526020600020905b8154815290600101906020018083116106b257829003601f168201915b5050505050905091509150915091565b3373ffffffffffffffffffffffffffffffffffffffff166002600083815260200190815260200160002060040160009054906101000a900473ffffffffffffffffffffffffffffffffffffffff1673ffffffffffffffffffffffffffffffffffffffff161415156107b8576040517f08c379a000000000000000000000000000000000000000000000000000000000815260040180806020018281038252601c8152602001807f4d757374206265206f63637570616e7420746f20636865636b6f75740000000081525060200191505060405180910390fd5b6000809054906101000a900473ffffffffffffffffffffffffffffffffffffffff1673ffffffffffffffffffffffffffffffffffffffff1663a9059cbb600160009054906101000a900473ffffffffffffffffffffffffffffffffffffffff1673ffffffffffffffffffffffffffffffffffffffff16636352211e846040518263ffffffff167c010000000000000000000000000000000000000000000000000000000002815260040180828152602001915050602060405180830381600087803b15801561088657600080fd5b505af115801561089a573d6000803e3d6000fd5b505050506040513d60208110156108b057600080fd5b810190808051906020019092919050505060026000858152602001908152602001600020600101546040518363ffffffff167c0100000000000000000000000000000000000000000000000000000000028152600401808373ffffffffffffffffffffffffffffffffffffffff1673ffffffffffffffffffffffffffffffffffffffff16815260200182815260200192505050602060405180830381600087803b15801561095d57600080fd5b505af1158015610971573d6000803e3d6000fd5b505050506040513d602081101561098757600080fd5b81019080805190602001909291905050501515610a32576040517f08c379a000000000000000000000000000000000000000000000000000000000815260040180806020018281038252602c8152602001807f436f6e7472616374206d757374207375636365737366756c6c79207472616e7381526020017f66657220746f206f776e6572000000000000000000000000000000000000000081525060400191505060405180910390fd5b60006002600083815260200190815260200160002060020160006101000a81548173ffffffffffffffffffffffffffffffffffffffff021916908373ffffffffffffffffffffffffffffffffffffffff16021790555060026000828152602001908152602001600020600001600081548092919060010191905055507f2c276699fefbad45f18509233bc03bb9cfdf41b18f32756933188bdef35fef55816040518082815260200191505060405180910390a150565b6000813373ffffffffffffffffffffffffffffffffffffffff16600160009054906101000a900473ffffffffffffffffffffffffffffffffffffffff1673ffffffffffffffffffffffffffffffffffffffff16636352211e836040518263ffffffff167c010000000000000000000000000000000000000000000000000000000002815260040180828152602001915050602060405180830381600087803b158015610b9357600080fd5b505af1158015610ba7573d6000803e3d6000fd5b505050506040513d6020811015610bbd57600080fd5b810190808051906020019092919050505073ffffffffffffffffffffffffffffffffffffffff16141515610c7f576040517f08c379a00000000000000000000000000000000000000000000000000000000081526004018080602001828103825260318152602001807f4e6f6e2d6f776e657220697320747279696e6720746f20616363657373206f7781526020017f6e6572206f6e6c792066756e6374696f6e00000000000000000000000000000081525060400191505060405180910390fd5b6002600084815260200190815260200160002060000154915050919050565b60008060606002600085815260200190815260200160002060000154600260008681526020019081526020016000206001015460026000878152602001908152602001600020600701808054600181600116156101000203166002900480601f016020809104026020016040519081016040528092919081815260200182805460018160011615610100020316600290048015610d7c5780601f10610d5157610100808354040283529160200191610d7c565b820191906000526020600020905b815481529060010190602001808311610d5f57829003601f168201915b505050505090509250925092509193909250565b823373ffffffffffffffffffffffffffffffffffffffff16600160009054906101000a900473ffffffffffffffffffffffffffffffffffffffff1673ffffffffffffffffffffffffffffffffffffffff16636352211e836040518263ffffffff167c010000000000000000000000000000000000000000000000000000000002815260040180828152602001915050602060405180830381600087803b158015610e3957600080fd5b505af1158015610e4d573d6000803e3d6000fd5b505050506040513d6020811015610e6357600080fd5b810190808051906020019092919050505073ffffffffffffffffffffffffffffffffffffffff16141515610f25576040517f08c379a00000000000000000000000000000000000000000000000000000000081526004018080602001828103825260318152602001807f4e6f6e2d6f776e657220697320747279696e6720746f20616363657373206f7781526020017f6e6572206f6e6c792066756e6374696f6e00000000000000000000000000000081525060400191505060405180910390fd5b6101006040519081016040528060008152602001848152602001600073ffffffffffffffffffffffffffffffffffffffff168152602001600073ffffffffffffffffffffffffffffffffffffffff168152602001600073ffffffffffffffffffffffffffffffffffffffff16815260200160008152602001600081526020018381525060026000868152602001908152602001600020600082015181600001556020820151816001015560408201518160020160006101000a81548173ffffffffffffffffffffffffffffffffffffffff021916908373ffffffffffffffffffffffffffffffffffffffff16021790555060608201518160030160006101000a81548173ffffffffffffffffffffffffffffffffffffffff021916908373ffffffffffffffffffffffffffffffffffffffff16021790555060808201518160040160006101000a81548173ffffffffffffffffffffffffffffffffffffffff021916908373ffffffffffffffffffffffffffffffffffffffff16021790555060a0820151816005015560c0820151816006015560e08201518160070190805190602001906110d492919061186c565b509050507f1fcb8fd4a09d0facf37b6e1cd47a0cce5aa0b069a1d3d5bd9c223220fa1f5a1c846040518082815260200191505060405180910390a150505050565b803373ffffffffffffffffffffffffffffffffffffffff16600160009054906101000a900473ffffffffffffffffffffffffffffffffffffffff1673ffffffffffffffffffffffffffffffffffffffff16636352211e836040518263ffffffff167c010000000000000000000000000000000000000000000000000000000002815260040180828152602001915050602060405180830381600087803b1580156111be57600080fd5b505af11580156111d2573d6000803e3d6000fd5b505050506040513d60208110156111e857600080fd5b810190808051906020019092919050505073ffffffffffffffffffffffffffffffffffffffff161415156112aa576040517f08c379a00000000000000000000000000000000000000000000000000000000081526004018080602001828103825260318152602001807f4e6f6e2d6f776e657220697320747279696e6720746f20616363657373206f7781526020017f6e6572206f6e6c792066756e6374696f6e00000000000000000000000000000081525060400191505060405180910390fd5b6002600083815260200190815260200160002060020160009054906101000a900473ffffffffffffffffffffffffffffffffffffffff166002600084815260200190815260200160002060030160006101000a81548173ffffffffffffffffffffffffffffffffffffffff021916908373ffffffffffffffffffffffffffffffffffffffff1602179055507f3ad93af63cb7967b23e4fb500b7d7d28b07516325dcf341f88bebf959d82c1cb826040518082815260200191505060405180910390a15050565b3373ffffffffffffffffffffffffffffffffffffffff166002600083815260200190815260200160002060030160009054906101000a900473ffffffffffffffffffffffffffffffffffffffff1673ffffffffffffffffffffffffffffffffffffffff16141515611449576040517f08c379a00000000000000000000000000000000000000000000000000000000081526004018080602001828103825260158152602001807f4775657374206973206e6f7420617070726f766564000000000000000000000081525060200191505060405180910390fd5b6002600082815260200190815260200160002060050154421115156114fc576040517f08c379a00000000000000000000000000000000000000000000000000000000081526004018080602001828103825260228152602001807f436865636b20696e2074696d65206d757374206265207072696f7220746f206e81526020017f6f7700000000000000000000000000000000000000000000000000000000000081525060400191505060405180910390fd5b6000809054906101000a900473ffffffffffffffffffffffffffffffffffffffff1673ffffffffffffffffffffffffffffffffffffffff166323b872dd333060026000868152602001908152602001600020600101546040518463ffffffff167c0100000000000000000000000000000000000000000000000000000000028152600401808473ffffffffffffffffffffffffffffffffffffffff1673ffffffffffffffffffffffffffffffffffffffff1681526020018373ffffffffffffffffffffffffffffffffffffffff1673ffffffffffffffffffffffffffffffffffffffff1681526020018281526020019350505050602060405180830381600087803b15801561160a57600080fd5b505af115801561161e573d6000803e3d6000fd5b505050506040513d602081101561163457600080fd5b810190808051906020019092919050505015156116b9576040517f08c379a000000000000000000000000000000000000000000000000000000000815260040180806020018281038252601d8152602001807f4d7573742073756363657366756c6c792070617920666f7220726f6f6d00000081525060200191505060405180910390fd5b6002600082815260200190815260200160002060030160009054906101000a900473ffffffffffffffffffffffffffffffffffffffff166002600083815260200190815260200160002060040160006101000a81548173ffffffffffffffffffffffffffffffffffffffff021916908373ffffffffffffffffffffffffffffffffffffffff1602179055507fdf06c27528e294967ba5e32e69b9c5fe102a58c699c44740c2c4c6afc7192535816040518082815260200191505060405180910390a150565b60008060008060006002600087815260200190815260200160002060020160009054906101000a900473ffffffffffffffffffffffffffffffffffffffff166002600088815260200190815260200160002060030160009054906101000a900473ffffffffffffffffffffffffffffffffffffffff166002600089815260200190815260200160002060040160009054906101000a900473ffffffffffffffffffffffffffffffffffffffff16600260008a815260200190815260200160002060050154600260008b8152602001908152602001600020600601549450945094509450945091939590929450565b828054600181600116156101000203166002900490600052602060002090601f016020900481019282601f106118ad57805160ff19168380011785556118db565b828001600101855582156118db579182015b828111156118da5782518255916020019190600101906118bf565b5b5090506118e891906118ec565b5090565b61190e91905b8082111561190a5760008160009055506001016118f2565b5090565b905600a165627a7a72305820cd4ead375c2d9000850a5efdadec4e823dd3d9b6879dea8e7add1aece763f9de0029",
  "source": "pragma solidity ^0.4.24;\n\nimport \"../client/node_modules/zeppelin-solidity/contracts/token/ERC721/ERC721Basic.sol\";\nimport \"../client/node_modules/zeppelin-solidity/contracts/token/ERC20/ERC20.sol\";\n\ncontract PropertyRegistry {\n    \n    ERC20 propertyToken;\n    ERC721Basic propertyContract;\n\n    struct Data {\n        uint256 stays;\n        uint256 price;\n        address requested;\n        address approved;\n        address occupant;\n        uint256 checkIn;\n        uint256 checkOut;\n        string uri;\n    }\n\n    event Registered(uint256 _tokenId);\n    event Approved(uint256 _tokenId);\n    event Requested(uint256 _tokenId);\n    event CheckIn(uint256 _tokenId);\n    event CheckOut(uint256 _tokenId);\n\n    mapping(uint256 => Data) propertyDetails;\n\n    modifier onlyOwner(uint256 _tokenId) {\n        require(propertyContract.ownerOf(_tokenId) == msg.sender, \"Non-owner is trying to access owner only function\");\n        _;\n    }\n\n    modifier notRequested(uint256 _tokenId){\n        require(propertyDetails[_tokenId].requested == address(0), \"Requested must be empty\");\n        _;\n    }\n\n    constructor(address _propertyContract, address _propertyToken) public {\n        propertyContract = ERC721Basic(_propertyContract);\n        propertyToken = ERC20(_propertyToken);\n    }\n\n    function getPropertyDetails(uint256 _tokenId) public view returns (uint256, string){\n        return (\n            propertyDetails[_tokenId].price,\n            propertyDetails[_tokenId].uri\n        );\n    }\n\n    function registerProperty(uint256 _tokenId, uint256 _price, string _uri) public onlyOwner(_tokenId){\n        propertyDetails[_tokenId] = Data(0, _price, address(0), address(0), address(0), 0, 0, _uri);\n        emit Registered(_tokenId);\n    }\n\n    function requestStay(uint256 _tokenId, uint256 _checkIn, uint256 _checkOut) public notRequested(_tokenId){\n        propertyDetails[_tokenId].requested = msg.sender;\n        propertyDetails[_tokenId].checkIn = _checkIn;\n        propertyDetails[_tokenId].checkOut = _checkOut;\n        emit Requested(_tokenId);\n    }\n\n    function approveRequest(uint256 _tokenId) public onlyOwner(_tokenId) {\n        propertyDetails[_tokenId].approved = propertyDetails[_tokenId].requested;\n        emit Approved(_tokenId);\n    }\n\n    function checkIn(uint256 _tokenId) public {\n        require(propertyDetails[_tokenId].approved == msg.sender, \"Guest is not approved\");\n        require(now > propertyDetails[_tokenId].checkIn, \"Check in time must be prior to now\");\n        require(propertyToken.transferFrom(msg.sender, address(this), propertyDetails[_tokenId].price), \"Must succesfully pay for room\");\n        propertyDetails[_tokenId].occupant = propertyDetails[_tokenId].approved;\n        emit CheckIn(_tokenId);\n    }\n\n    function checkOut(uint _tokenId) public {\n        require(propertyDetails[_tokenId].occupant == msg.sender, \"Must be occupant to checkout\");\n        require(\n            propertyToken.transfer(propertyContract.ownerOf(_tokenId), propertyDetails[_tokenId].price), \n            \"Contract must successfully transfer to owner\"\n        );\n        propertyDetails[_tokenId].requested = address(0);\n        propertyDetails[_tokenId].stays++;\n        emit CheckOut(_tokenId);\n    }\n\n    function getPropertyData(uint256 _tokenId) external view \n    returns (\n        uint256 stays,\n        uint256 price,\n        string uri\n    ) {\n        return (\n            propertyDetails[_tokenId].stays,\n            propertyDetails[_tokenId].price,\n            propertyDetails[_tokenId].uri\n        );\n    }\n\n    function getStayData(uint256 _tokenId) external view \n    returns (\n        address,\n        address,\n        address,\n        uint256,\n        uint256\n    ){\n        return (\n            propertyDetails[_tokenId].requested,\n            propertyDetails[_tokenId].approved,\n            propertyDetails[_tokenId].occupant,\n            propertyDetails[_tokenId].checkIn,\n            propertyDetails[_tokenId].checkOut\n        );\n    }\n\n    // =============================\n    // View functions for Owner\n    // =============================\n\n    function ownerGetStays(uint256 _tokenId) external view onlyOwner(_tokenId) returns (uint256){\n        return propertyDetails[_tokenId].stays;\n    }\n\n}",
  "sourcePath": "/Users/jonathanlorimer/Documents/coding_files/blockchain/lhl/crypto-bnb/contracts/PropertyRegistry.sol",
  "compiler": {
    "name": "solc",
    "version": "0.4.24+commit.e67f0147.Emscripten.clang"
  },
  "schemaVersion": "2.0.1",
  "updatedAt": "2018-11-24T20:40:20.135Z"
}