{
  "contractName": "SupportsInterfaceWithLookup",
  "abi": [
    {
      "constant": true,
      "inputs": [],
      "name": "InterfaceId_ERC165",
      "outputs": [
        {
          "name": "",
          "type": "bytes4"
        }
      ],
      "payable": false,
      "stateMutability": "view",
      "type": "function"
    },
    {
      "inputs": [],
      "payable": false,
      "stateMutability": "nonpayable",
      "type": "constructor"
    },
    {
      "constant": true,
      "inputs": [
        {
          "name": "_interfaceId",
          "type": "bytes4"
        }
      ],
      "name": "supportsInterface",
      "outputs": [
        {
          "name": "",
          "type": "bool"
        }
      ],
      "payable": false,
      "stateMutability": "view",
      "type": "function"
    }
  ],
  "bytecode": "0x608060405234801561001057600080fd5b5061004c6301ffc9a77c010000000000000000000000000000000000000000000000000000000002610051640100000000026401000000009004565b61010e565b63ffffffff7c010000000000000000000000000000000000000000000000000000000002817bffffffffffffffffffffffffffffffffffffffffffffffffffffffff1916141515156100a257600080fd5b6001600080837bffffffffffffffffffffffffffffffffffffffffffffffffffffffff19167bffffffffffffffffffffffffffffffffffffffffffffffffffffffff1916815260200190815260200160002060006101000a81548160ff02191690831515021790555050565b6101d88061011d6000396000f30060806040526004361061004c576000357c0100000000000000000000000000000000000000000000000000000000900463ffffffff16806301ffc9a71461005157806319fa8f50146100b5575b600080fd5b34801561005d57600080fd5b5061009b60048036038101908080357bffffffffffffffffffffffffffffffffffffffffffffffffffffffff1916906020019092919050505061011e565b604051808215151515815260200191505060405180910390f35b3480156100c157600080fd5b506100ca610185565b60405180827bffffffffffffffffffffffffffffffffffffffffffffffffffffffff19167bffffffffffffffffffffffffffffffffffffffffffffffffffffffff1916815260200191505060405180910390f35b6000806000837bffffffffffffffffffffffffffffffffffffffffffffffffffffffff19167bffffffffffffffffffffffffffffffffffffffffffffffffffffffff1916815260200190815260200160002060009054906101000a900460ff169050919050565b6301ffc9a77c010000000000000000000000000000000000000000000000000000000002815600a165627a7a72305820deab99383c8080f4150aeeb149b34b3e5f007ebd67d4aae58cdcb6306c39d6eb0029",
  "source": "pragma solidity ^0.4.24;\n\nimport \"./ERC165.sol\";\n\n\n/**\n * @title SupportsInterfaceWithLookup\n * @author Matt Condon (@shrugs)\n * @dev Implements ERC165 using a lookup table.\n */\ncontract SupportsInterfaceWithLookup is ERC165 {\n\n  bytes4 public constant InterfaceId_ERC165 = 0x01ffc9a7;\n  /**\n   * 0x01ffc9a7 ===\n   *   bytes4(keccak256('supportsInterface(bytes4)'))\n   */\n\n  /**\n   * @dev a mapping of interface id to whether or not it's supported\n   */\n  mapping(bytes4 => bool) internal supportedInterfaces;\n\n  /**\n   * @dev A contract implementing SupportsInterfaceWithLookup\n   * implement ERC165 itself\n   */\n  constructor()\n    public\n  {\n    _registerInterface(InterfaceId_ERC165);\n  }\n\n  /**\n   * @dev implement supportsInterface(bytes4) using a lookup table\n   */\n  function supportsInterface(bytes4 _interfaceId)\n    external\n    view\n    returns (bool)\n  {\n    return supportedInterfaces[_interfaceId];\n  }\n\n  /**\n   * @dev private method for registering an interface\n   */\n  function _registerInterface(bytes4 _interfaceId)\n    internal\n  {\n    require(_interfaceId != 0xffffffff);\n    supportedInterfaces[_interfaceId] = true;\n  }\n}\n",
  "sourcePath": "/Users/jonathanlorimer/Documents/coding_files/blockchain/lhl/crypto-bnb/client/node_modules/zeppelin-solidity/contracts/introspection/SupportsInterfaceWithLookup.sol",
  "compiler": {
    "name": "solc",
    "version": "0.4.24+commit.e67f0147.Emscripten.clang"
  },
  "schemaVersion": "2.0.1",
  "updatedAt": "2018-11-24T16:32:41.777Z"
}